{"abi":[{"type":"constructor","inputs":[],"stateMutability":"nonpayable"},{"type":"function","name":"addVehicle","inputs":[{"name":"_VIN","type":"string","internalType":"string"},{"name":"odoReading","type":"uint256","internalType":"uint256"},{"name":"yearOfProd","type":"uint16","internalType":"uint16"},{"name":"carModel","type":"string","internalType":"string"}],"outputs":[],"stateMutability":"nonpayable"},{"type":"function","name":"checkMileage","inputs":[{"name":"_VIN","type":"string","internalType":"string"}],"outputs":[{"name":"","type":"uint256","internalType":"uint256"}],"stateMutability":"view"},{"type":"function","name":"checkStolenStatus","inputs":[{"name":"_VIN","type":"string","internalType":"string"}],"outputs":[{"name":"","type":"bool","internalType":"bool"}],"stateMutability":"view"},{"type":"function","name":"displayVehicleInformation","inputs":[{"name":"_VIN","type":"string","internalType":"string"}],"outputs":[{"name":"","type":"string","internalType":"string"},{"name":"","type":"uint256","internalType":"uint256"},{"name":"","type":"uint16","internalType":"uint16"},{"name":"","type":"string","internalType":"string"},{"name":"","type":"bool","internalType":"bool"}],"stateMutability":"view"},{"type":"function","name":"i_owner","inputs":[],"outputs":[{"name":"","type":"address","internalType":"address"}],"stateMutability":"view"},{"type":"function","name":"updateMileage","inputs":[{"name":"_VIN","type":"string","internalType":"string"},{"name":"newOdoReading","type":"uint256","internalType":"uint256"}],"outputs":[],"stateMutability":"nonpayable"},{"type":"function","name":"updateStolenStatus","inputs":[{"name":"_VIN","type":"string","internalType":"string"}],"outputs":[],"stateMutability":"nonpayable"},{"type":"function","name":"vehicleIdNumber","inputs":[],"outputs":[{"name":"","type":"uint256","internalType":"uint256"}],"stateMutability":"view"},{"type":"function","name":"vehicleInfo","inputs":[{"name":"","type":"string","internalType":"string"}],"outputs":[{"name":"VIN","type":"string","internalType":"string"},{"name":"odometerReading","type":"uint256","internalType":"uint256"},{"name":"yearOfProduction","type":"uint16","internalType":"uint16"},{"name":"carModel","type":"string","internalType":"string"},{"name":"stolen","type":"bool","internalType":"bool"},{"name":"alreadyExisting","type":"bool","internalType":"bool"}],"stateMutability":"view"},{"type":"event","name":"MileageUpdated","inputs":[{"name":"oldOdometerReading","type":"uint256","indexed":false,"internalType":"uint256"},{"name":"newOdometerReading","type":"uint256","indexed":false,"internalType":"uint256"}],"anonymous":false},{"type":"event","name":"StolenStatusUpdated","inputs":[{"name":"status","type":"bool","indexed":false,"internalType":"bool"}],"anonymous":false},{"type":"event","name":"VehicleAdded","inputs":[{"name":"VIN","type":"string","indexed":false,"internalType":"string"},{"name":"carModel","type":"string","indexed":false,"internalType":"string"}],"anonymous":false},{"type":"error","name":"NotOwner","inputs":[]}],"bytecode":{"object":"0x60a060405234801561001057600080fd5b50600160005533608052608051610fd061004a600039600081816101410152818161052a015281816106e401526109560152610fd06000f3fe608060405234801561001057600080fd5b50600436106100935760003560e01c806393f912c51161006657806393f912c514610114578063ca90229914610129578063dba6335f1461013c578063e2e09aaa1461017b578063ef3ef7c31461019e57600080fd5b8063089fb0ac146100985780635cb030a9146100c657806367cf3e76146100ea5780636cfd74b014610101575b600080fd5b6100ab6100a6366004610c12565b6101b1565b6040516100bd96959493929190610c9f565b60405180910390f35b6100d96100d4366004610c12565b61030f565b6040516100bd959493929190610cef565b6100f360005481565b6040519081526020016100bd565b6100f361010f366004610c12565b6104f4565b610127610122366004610c12565b61051f565b005b610127610137366004610d39565b6106d9565b6101637f000000000000000000000000000000000000000000000000000000000000000081565b6040516001600160a01b0390911681526020016100bd565b61018e610189366004610c12565b61091d565b60405190151581526020016100bd565b6101276101ac366004610d7e565b61094b565b80516020818301810180516001825292820191909301209152805481906101d790610e07565b80601f016020809104026020016040519081016040528092919081815260200182805461020390610e07565b80156102505780601f1061022557610100808354040283529160200191610250565b820191906000526020600020905b81548152906001019060200180831161023357829003601f168201915b50505050600183015460028401546003850180549495929461ffff90921693509061027a90610e07565b80601f01602080910402602001604051908101604052809291908181526020018280546102a690610e07565b80156102f35780601f106102c8576101008083540402835291602001916102f3565b820191906000526020600020905b8154815290600101906020018083116102d657829003601f168201915b5050506004909301549192505060ff8082169161010090041686565b6060600080606060006001866040516103289190610e41565b90815260405190819003602001812090600190610346908990610e41565b9081526020016040518091039020600101546001886040516103689190610e41565b9081526040519081900360200181206002015461ffff169060019061038e908b90610e41565b908152602001604051809103902060030160018a6040516103af9190610e41565b90815260405190819003602001902060040154845460ff9091169085906103d590610e07565b80601f016020809104026020016040519081016040528092919081815260200182805461040190610e07565b801561044e5780601f106104235761010080835404028352916020019161044e565b820191906000526020600020905b81548152906001019060200180831161043157829003601f168201915b5050505050945081805461046190610e07565b80601f016020809104026020016040519081016040528092919081815260200182805461048d90610e07565b80156104da5780601f106104af576101008083540402835291602001916104da565b820191906000526020600020905b8154815290600101906020018083116104bd57829003601f168201915b505050505091509450945094509450945091939590929450565b60006001826040516105069190610e41565b9081526020016040518091039020600101549050919050565b336001600160a01b037f00000000000000000000000000000000000000000000000000000000000000001614610568576040516330cd747160e01b815260040160405180910390fd5b6001816040516105789190610e41565b9081526040519081900360200190206004015460ff6101009091041615156001146105e25760405162461bcd60e51b815260206004820152601560248201527415995a1a58db1948191bd95cdb89dd08195e1a5cdd605a1b60448201526064015b60405180910390fd5b6001816040516105f29190610e41565b9081526040519081900360200190206004015460ff1615156001036106795760006001826040516106239190610e41565b90815260405160209181900382018120600401805460ff191693151593909317909255600082527f295787123ec61e10edf2d43f5a63cc9fb0e65eeb0ea95c588a6e0739282037e691015b60405180910390a150565b6001808260405161068a9190610e41565b90815260405160209181900382018120600401805460ff191693151593909317909255600182527f295787123ec61e10edf2d43f5a63cc9fb0e65eeb0ea95c588a6e0739282037e6910161066e565b336001600160a01b037f00000000000000000000000000000000000000000000000000000000000000001614610722576040516330cd747160e01b815260040160405180910390fd5b6001826040516107329190610e41565b9081526040519081900360200190206004015460ff6101009091041615156001146107975760405162461bcd60e51b815260206004820152601560248201527415995a1a58db1948191bd95cdb89dd08195e1a5cdd605a1b60448201526064016105d9565b6001826040516107a79190610e41565b9081526040519081900360200190206004015460ff16156108195760405162461bcd60e51b815260206004820152602660248201527f5761726e696e673a2056656869636c65206973207265706f727465642061732060448201526539ba37b632b760d11b60648201526084016105d9565b6001826040516108299190610e41565b90815260200160405180910390206001015481116108955760405162461bcd60e51b8152602060048201526024808201527f4e6577204d696c65616765206c6f776572207468616e206c617374207265636f6044820152631c99195960e21b60648201526084016105d9565b60006001836040516108a79190610e41565b9081526020016040518091039020600101549050816001846040516108cc9190610e41565b9081526040805160209281900383018120600101939093558383529082018490527f8efc49dd7338aab32e9fff6b2a18b774819b865271595aafc571d0137bedbb3f910160405180910390a1505050565b600060018260405161092f9190610e41565b9081526040519081900360200190206004015460ff1692915050565b336001600160a01b037f00000000000000000000000000000000000000000000000000000000000000001614610994576040516330cd747160e01b815260040160405180910390fd5b6001846040516109a49190610e41565b9081526040519081900360200190206004015460ff6101009091041615610a065760405162461bcd60e51b815260206004820152601660248201527556656869636c6520416c72656164792045786973747360501b60448201526064016105d9565b83600185604051610a179190610e41565b90815260405190819003602001902090610a319082610eac565b5082600185604051610a439190610e41565b90815260200160405180910390206001018190555081600185604051610a699190610e41565b908152602001604051809103902060020160006101000a81548161ffff021916908361ffff16021790555080600185604051610aa59190610e41565b90815260200160405180910390206003019081610ac29190610eac565b506000600185604051610ad59190610e41565b908152604051908190036020018120600401805492151560ff19909316929092179091556001908190610b09908790610e41565b90815260405190819003602001812060040180549215156101000261ff0019909316929092179091557f24e927d958239a1739e97706b79989f8087c7ecaf0a0ce0f48b0b5cf6cd741ea90610b619086908490610f6c565b60405180910390a150505050565b634e487b7160e01b600052604160045260246000fd5b600082601f830112610b9657600080fd5b813567ffffffffffffffff80821115610bb157610bb1610b6f565b604051601f8301601f19908116603f01168101908282118183101715610bd957610bd9610b6f565b81604052838152866020858801011115610bf257600080fd5b836020870160208301376000602085830101528094505050505092915050565b600060208284031215610c2457600080fd5b813567ffffffffffffffff811115610c3b57600080fd5b610c4784828501610b85565b949350505050565b60005b83811015610c6a578181015183820152602001610c52565b50506000910152565b60008151808452610c8b816020860160208601610c4f565b601f01601f19169290920160200192915050565b60c081526000610cb260c0830189610c73565b87602084015261ffff871660408401528281036060840152610cd48187610c73565b9415156080840152505090151560a090910152949350505050565b60a081526000610d0260a0830188610c73565b86602084015261ffff861660408401528281036060840152610d248186610c73565b91505082151560808301529695505050505050565b60008060408385031215610d4c57600080fd5b823567ffffffffffffffff811115610d6357600080fd5b610d6f85828601610b85565b95602094909401359450505050565b60008060008060808587031215610d9457600080fd5b843567ffffffffffffffff80821115610dac57600080fd5b610db888838901610b85565b9550602087013594506040870135915061ffff82168214610dd857600080fd5b90925060608601359080821115610dee57600080fd5b50610dfb87828801610b85565b91505092959194509250565b600181811c90821680610e1b57607f821691505b602082108103610e3b57634e487b7160e01b600052602260045260246000fd5b50919050565b60008251610e53818460208701610c4f565b9190910192915050565b601f821115610ea757600081815260208120601f850160051c81016020861015610e845750805b601f850160051c820191505b81811015610ea357828155600101610e90565b5050505b505050565b815167ffffffffffffffff811115610ec657610ec6610b6f565b610eda81610ed48454610e07565b84610e5d565b602080601f831160018114610f0f5760008415610ef75750858301515b600019600386901b1c1916600185901b178555610ea3565b600085815260208120601f198616915b82811015610f3e57888601518255948401946001909101908401610f1f565b5085821015610f5c5787850151600019600388901b60f8161c191681555b5050505050600190811b01905550565b604081526000610f7f6040830185610c73565b8281036020840152610f918185610c73565b9594505050505056fea2646970667358221220c3e8bce30a24b9dde8daa2813f1cd90bac9b6ef52ae59b7215c99a0f83a3cc3064736f6c63430008120033","linkReferences":{}},"methodIdentifiers":{"addVehicle(string,uint256,uint16,string)":"ef3ef7c3","checkMileage(string)":"6cfd74b0","checkStolenStatus(string)":"e2e09aaa","displayVehicleInformation(string)":"5cb030a9","i_owner()":"dba6335f","updateMileage(string,uint256)":"ca902299","updateStolenStatus(string)":"93f912c5","vehicleIdNumber()":"67cf3e76","vehicleInfo(string)":"089fb0ac"},"id":22}