{"abi":[{"type":"constructor","inputs":[],"stateMutability":"nonpayable"},{"type":"function","name":"addVehicle","inputs":[{"name":"odoReading","type":"uint256","internalType":"uint256"},{"name":"yearOfProd","type":"uint8","internalType":"uint8"},{"name":"carModel","type":"bytes32","internalType":"bytes32"}],"outputs":[],"stateMutability":"nonpayable"},{"type":"function","name":"checkMileage","inputs":[{"name":"idNumber","type":"uint256","internalType":"uint256"}],"outputs":[{"name":"","type":"uint256","internalType":"uint256"}],"stateMutability":"view"},{"type":"function","name":"checkStolenStatus","inputs":[{"name":"idNumber","type":"uint256","internalType":"uint256"}],"outputs":[{"name":"","type":"bool","internalType":"bool"}],"stateMutability":"view"},{"type":"function","name":"displayVehicleInformation","inputs":[{"name":"idNumber","type":"uint256","internalType":"uint256"}],"outputs":[{"name":"","type":"uint256","internalType":"uint256"},{"name":"","type":"uint8","internalType":"uint8"},{"name":"","type":"bytes32","internalType":"bytes32"},{"name":"","type":"bool","internalType":"bool"}],"stateMutability":"view"},{"type":"function","name":"i_owner","inputs":[],"outputs":[{"name":"","type":"address","internalType":"address"}],"stateMutability":"view"},{"type":"function","name":"updateMileage","inputs":[{"name":"_vehicleIdNumber","type":"uint256","internalType":"uint256"},{"name":"newOdoReading","type":"uint256","internalType":"uint256"}],"outputs":[],"stateMutability":"nonpayable"},{"type":"function","name":"updateStolenStatus","inputs":[{"name":"idNumber","type":"uint256","internalType":"uint256"}],"outputs":[],"stateMutability":"nonpayable"},{"type":"function","name":"vehicleIdNumber","inputs":[],"outputs":[{"name":"","type":"uint256","internalType":"uint256"}],"stateMutability":"view"},{"type":"function","name":"vehicleInfo","inputs":[{"name":"","type":"uint256","internalType":"uint256"}],"outputs":[{"name":"VIN","type":"uint256","internalType":"uint256"},{"name":"Engine","type":"bytes32","internalType":"bytes32"},{"name":"HorsePower","type":"bytes32","internalType":"bytes32"},{"name":"odometerReading","type":"uint256","internalType":"uint256"},{"name":"yearOfProduction","type":"uint8","internalType":"uint8"},{"name":"carModel","type":"bytes32","internalType":"bytes32"},{"name":"stolen","type":"bool","internalType":"bool"},{"name":"alreadyExisting","type":"bool","internalType":"bool"}],"stateMutability":"view"},{"type":"event","name":"MileageUpdated","inputs":[{"name":"oldOdometerReading","type":"uint256","indexed":false,"internalType":"uint256"},{"name":"newOdometerReading","type":"uint256","indexed":false,"internalType":"uint256"}],"anonymous":false},{"type":"event","name":"StolenStatusUpdated","inputs":[{"name":"status","type":"bool","indexed":false,"internalType":"bool"}],"anonymous":false},{"type":"event","name":"VehicleAdded","inputs":[{"name":"vehicleIdNumber","type":"uint256","indexed":false,"internalType":"uint256"},{"name":"carModel","type":"bytes32","indexed":false,"internalType":"bytes32"}],"anonymous":false},{"type":"error","name":"NotOwner","inputs":[]}],"bytecode":{"object":"0x60a060405234801561001057600080fd5b5060016000553360805260805161080861004a600039600081816101d6015281816102930152818161040001526105e201526108086000f3fe608060405234801561001057600080fd5b50600436106100935760003560e01c8063af0d661611610066578063af0d6616146101a9578063c9831541146101be578063dba6335f146101d1578063dfe819c814610210578063f5a1a4ae1461027557600080fd5b8063094dba8d14610098578063388eba411461013957806367cf3e761461016f578063acffccf514610186575b600080fd5b6100f26100a6366004610732565b6001602081905260009182526040909120805491810154600282015460038301546004840154600585015460069095015493949293919260ff9182169290918181169161010090041688565b60408051988952602089019790975295870194909452606086019290925260ff16608085015260a0840152151560c0830152151560e0820152610100015b60405180910390f35b61015f610147366004610732565b60009081526001602052604090206006015460ff1690565b6040519015158152602001610130565b61017860005481565b604051908152602001610130565b610178610194366004610732565b60009081526001602052604090206003015490565b6101bc6101b7366004610732565b610288565b005b6101bc6101cc36600461074b565b6103f5565b6101f87f000000000000000000000000000000000000000000000000000000000000000081565b6040516001600160a01b039091168152602001610130565b61025161021e366004610732565b6000908152600160205260409020600381015460048201546005830154600690930154919360ff91821693929190911690565b6040805194855260ff90931660208501529183015215156060820152608001610130565b6101bc61028336600461076d565b6105d7565b336001600160a01b037f000000000000000000000000000000000000000000000000000000000000000016146102d1576040516330cd747160e01b815260040160405180910390fd5b600081815260016020819052604090912060060154610100900460ff1615151461033a5760405162461bcd60e51b815260206004820152601560248201527415995a1a58db1948191bd95cdb89dd08195e1a5cdd605a1b60448201526064015b60405180910390fd5b60008181526001602081905260409091206006015460ff16151590036103a9576000818152600160209081526040808320600601805460ff19169055519182527f295787123ec61e10edf2d43f5a63cc9fb0e65eeb0ea95c588a6e0739282037e691015b60405180910390a150565b600081815260016020818152604092839020600601805460ff19168317905591519081527f295787123ec61e10edf2d43f5a63cc9fb0e65eeb0ea95c588a6e0739282037e6910161039e565b336001600160a01b037f0000000000000000000000000000000000000000000000000000000000000000161461043e576040516330cd747160e01b815260040160405180910390fd5b600082815260016020819052604090912060060154610100900460ff161515146104a25760405162461bcd60e51b815260206004820152601560248201527415995a1a58db1948191bd95cdb89dd08195e1a5cdd605a1b6044820152606401610331565b60008281526001602052604090206006015460ff16156105135760405162461bcd60e51b815260206004820152602660248201527f5761726e696e673a2056656869636c65206973207265706f727465642061732060448201526539ba37b632b760d11b6064820152608401610331565b600082815260016020526040902060030154811161057f5760405162461bcd60e51b8152602060048201526024808201527f4e6577204d696c65616765206c6f776572207468616e206c617374207265636f6044820152631c99195960e21b6064820152608401610331565b6000828152600160209081526040918290206003018054908490558251818152918201849052917f8efc49dd7338aab32e9fff6b2a18b774819b865271595aafc571d0137bedbb3f91015b60405180910390a1505050565b336001600160a01b037f00000000000000000000000000000000000000000000000000000000000000001614610620576040516330cd747160e01b815260040160405180910390fd5b60008054815260016020526040902060060154610100900460ff16156106815760405162461bcd60e51b815260206004820152601660248201527556656869636c6520416c72656164792045786973747360501b6044820152606401610331565b6000805481526001602052604080822060030185905581548252808220600401805460ff861660ff19918216179091558254835281832060050184905582548352818320600690810180549092169091558254835290822001805461ff001916610100179055805490806106f4836107ab565b909155505060005460408051918252602082018390527fc18a3a4a28db2f4904183ae10d42ba0220e1e683981cc752439a8e0629c5fd1d91016105ca565b60006020828403121561074457600080fd5b5035919050565b6000806040838503121561075e57600080fd5b50508035926020909101359150565b60008060006060848603121561078257600080fd5b83359250602084013560ff8116811461079a57600080fd5b929592945050506040919091013590565b6000600182016107cb57634e487b7160e01b600052601160045260246000fd5b506001019056fea2646970667358221220524d6b45bc15a9654f9b38d92e1b0f65f281c9c0330e07f11593b09f9d0e5e0964736f6c63430008120033","linkReferences":{}},"methodIdentifiers":{"addVehicle(uint256,uint8,bytes32)":"f5a1a4ae","checkMileage(uint256)":"acffccf5","checkStolenStatus(uint256)":"388eba41","displayVehicleInformation(uint256)":"dfe819c8","i_owner()":"dba6335f","updateMileage(uint256,uint256)":"c9831541","updateStolenStatus(uint256)":"af0d6616","vehicleIdNumber()":"67cf3e76","vehicleInfo(uint256)":"094dba8d"},"id":22}